:020000040800F2
:1000000068090020CD010008D1010008D3010008D3
:10001000D5010008D7010008D90100080000000040
:10002000000000000000000000000000DB010008EC
:10003000DD01000800000000DF010008E101000808
:10004000E3010008E3010008E3010008E301000800
:10005000E3010008E3010008E3010008E3010008F0
:10006000E3010008E3010008E3010008E3010008E0
:10007000E3010008E3010008E3010008E3010008D0
:10008000E3010008E3010008E3010008E3010008C0
:10009000E3010008E3010008E3010008E3010008B0
:1000A000E3010008E3010008E3010008E3010008A0
:1000B000E301000881140008E3010008E3010008DF
:1000C000E3010008E3010008E3010008E301000880
:1000D000E3010008D9140008E3010008E301000867
:1000E000E3010008E3010008E3010008E301000860
:1000F000E3010008E3010008E3010008E301000850
:10010000E3010008E3010008E3010008E30100083F
:10011000E3010008E3010008E3010008E30100082F
:10012000E3010008E3010008E3010008E30100081F
:1001300000F002F800F03AF80AA090E8000C8244BF
:100140008344AAF10107DA4501D100F02FF8AFF29C
:10015000090EBAE80F0013F0010F18BFFB1A43F0A5
:1001600001031847F840000018410000103A24BF6E
:1001700078C878C1FAD8520724BF30C830C144BF0C
:1001800004680C607047000000230024002500264E
:10019000103A28BF78C1FBD8520728BF30C148BFEA
:1001A0000B6070471FB51FBD10B510BD00F02DF8D6
:1001B0001146FFF7F7FF01F0BDFB00F04BF803B469
:1001C000FFF7F2FF03BC01F0DEFA00000848004729
:1001D000FEE7FEE7FEE7FEE7FEE7FEE7FEE7FEE7F7
:1001E000FEE7FEE703480449024A044B704700005B
:1001F000310100086805002068090020680500201A
:1002000070477047704770477047754600F028F890
:10021000AE4605006946534620F00700854618B0F3
:1002200020B5FFF7DFFFBDE820404FF000064FF09C
:1002300000074FF000084FF0000B21F00701AC461B
:10024000ACE8C009ACE8C009ACE8C009ACE8C0093A
:100250008D4670470446AFF300802046FFF7AFFF9E
:10026000004870470805002008B50121082000F06B
:1002700075FE4FF48070ADF8000010208DF803007B
:1002800003208DF802006946044800F009F84FF495
:100290008071024800F098F808BD0000000C014091
:1002A0002DE9F0410246002500260020002300240D
:1002B000002791F803C00CF00F0591F803C00CF073
:1002C000100CBCF1000F03D091F802C04CEA0505F8
:1002D00091F800C0BCF1000F31D0146800202BE071
:1002E0004FF0010C0CFA00F3B1F800C00CEA030661
:1002F0009E4220D183004FF00F0C0CFA03F7BC4351
:1003000005FA03FC4CEA040491F803C0BCF1280F81
:1003100006D14FF0010C0CFA00FCC2F814C00AE040
:1003200091F803C0BCF1480F05D14FF0010C0CFA55
:1003300000FCC2F810C0401C0828D1D31460B1F8EA
:1003400000C0BCF1FF0F34DD546800202EE000F146
:10035000080C4FF0010808FA0CF3B1F800C00CEAE1
:1003600003069E4221D183004FF00F0C0CFA03F7D5
:10037000BC4305FA03FC4CEA040491F803C0BCF149
:10038000280F05D100F1080C08FA0CF8C2F8148007
:1003900091F803C0BCF1480F07D100F1080C4FF0F1
:1003A000010808FA0CF8C2F81080401C0828CED3C7
:1003B0005460BDE8F0810246002093680B400BB109
:1003C000012000E0002070474161704701617047E3
:1003D00008B501210C2000F0C1FD28208DF8030094
:1003E0000120ADF8000003208DF80200694637486F
:1003F000FFF756FF28208DF803000220ADF800001B
:1004000003208DF8020069463048FFF749FF282095
:100410008DF803004FF48060ADF8000003208DF8E4
:10042000020069462948FFF73BFF28208DF80300AA
:100430004FF40060ADF8000003208DF8020069461B
:100440002248FFF72DFF28208DF803004FF480503D
:10045000ADF8000003208DF8020069461B48FFF745
:100460001FFF28208DF803004FF40050ADF8000066
:1004700003208DF8020069461448FFF711FF282079
:100480008DF803004FF48040ADF8000003208DF894
:10049000020069460D48FFF703FF28208DF803008E
:1004A0004FF40040ADF8000003208DF802006946CB
:1004B0000648FFF7F5FE48208DF803000F20ADF841
:1004C000000069460248FFF7EBFE08BD000C014042
:1004D0000008014070B5002000F068F8322001F0FB
:1004E000A7F9314800780F2856D02F480578012009
:1004F00000F05CF80A2001F09BF92B4800782840B6
:100500002949087008460078412834D012DC212897
:1005100029D008DC11281ED012281ED014281ED085
:10052000182838D11DE022281FD024281FD02828C1
:1005300031D11EE0812826D006DC42281DD0442877
:100540001DD0482827D11CE082281ED084281ED028
:10055000882820D11DE00C241DE00D241BE00E2472
:1005600019E00F2417E00B2415E0092413E00624FA
:1005700011E003240FE000240DE008240BE0052423
:1005800009E0022407E00A2405E0072403E004242C
:1005900001E0012400BF04E0034800780F2800D1E7
:1005A0001024204670BD00002B00002010B504462A
:1005B00000207149087034BB01217048FFF704FF27
:1005C00002216E48FFF700FF4FF480616B48FFF790
:1005D000FBFE4FF400616948FFF7F6FE4FF48051CF
:1005E0006648FFF7F3FE4FF400516448FFF7EEFE54
:1005F0004FF480416148FFF7E9FE4FF400415F4846
:10060000FFF7E4FE25E001215C48FFF7DFFE022151
:100610005A48FFF7DBFE4FF480615848FFF7D6FEDB
:100620004FF400615548FFF7D1FE4FF48051534815
:10063000FFF7CAFE4FF400515048FFF7C5FE4FF4D4
:1006400080414E48FFF7C0FE4FF400414B48FFF792
:10065000BBFEDE2001F0ECF801214848FFF7ABFEBD
:10066000012806D14448007840F0800042490870D3
:1006700003E0414800784049087002213F48FFF7F5
:100680009AFE012806D13C48007840F040003A49E3
:10069000087003E038480078374908704FF48061EB
:1006A0003648FFF788FE012806D13348007840F02D
:1006B00020003149087003E02F4800782E49087067
:1006C0004FF400612D48FFF776FE012806D12A4835
:1006D000007840F010002849087003E026480078B0
:1006E000254908704FF480512448FFF764FE012823
:1006F00006D12148007840F008001F49087003E047
:100700001D4800781C4908704FF400511B48FFF742
:1007100052FE012806D11848007840F0040016491E
:10072000087003E014480078134908704FF48041C2
:100730001248FFF740FE012806D10F48007840F02C
:1007400002000D49087003E00B4800780A49087060
:100750004FF400410948FFF72EFE012806D1064854
:10076000007840F001000449087003E00248007876
:100770000149087010BD00002B000020000C014052
:1007800008B501210C2000F0E9FB2020ADF80000A5
:1007900010208DF8030003208DF8020069460948F7
:1007A000FFF77EFD20210748FFF710FE2020ADF85F
:1007B000000069460448FFF773FD20210348FFF756
:1007C00005FE08BD000C0140001801400008014072
:1007D00000B5002015490861C86014204861002058
:1007E0008861C8610846006840F00100086008465A
:1007F00040680F4908400D494860084600680D49A7
:1008000008400A4908600846006820F48020086013
:100810000846406820F4FE004860002088600021FF
:100820004FF0006000F008F800BD0000001002402A
:100830000000FFF8FFFFF6FE024A0A400243024BA7
:100840001A60704780FFFF1F08ED00E070B50021BF
:1008500000230F22C47804B3154C246804F4E06428
:10086000C4F5E064210AC1F10403CA40447804FAE3
:1008700003F184781440214309010E4C0678A155F8
:10088000047804F01F050124AC4005786D11AD001B
:1008900005F1E025C5F8004109E0047804F01F05E2
:1008A0000124AC40044D0678761145F8264070BD11
:1008B0000CED00E000E400E080E100E030B5002451
:1008C0000CE0002506E00020074901EBC5010855B2
:1008D000681CC5B2802DF6DB601CC4B2082CF0DBAE
:1008E00000F0E6F830BD000006010020F0B5144627
:1008F00000267F2801DC3F2900DDF0BD0B46CF1725
:1009000001EB5777FF10C7F10707FAB2CF1701EBDA
:100910005777FF10A1EBC707FDB2C5F10707012309
:10092000BB40DEB24CB10A4B03EBC0039B5C3343CC
:10093000074F07EBC007BB5408E0054B03EBC003B0
:100940009B5CB343024F07EBC007BB5400BFD4E727
:100950000601002008B501214FF4987000F0FEFA5E
:100960004820ADF8000010208DF8030003208DF81A
:10097000020069464A48FFF793FC48214848FFF7C0
:1009800025FD0320ADF8000069464648FFF788FCC6
:1009900003214448FFF71AFD1020ADF80000694616
:1009A0003F48FFF77DFC4FF400413D48FFF70EFD47
:1009B00001203D4908603D49C1F88C0100203A49B9
:1009C00008390860642000F015FF01203749C1F89C
:1009D00090010021AE2000F091F90021D52000F017
:1009E0008DF90021502000F089F90021A82000F0A5
:1009F00085F900213F2000F081F90021D32000F08B
:100A00007DF90021084600F079F90021402000F02E
:100A100075F900218D2000F071F90021142000F0FB
:100A20006DF90021202000F069F90021022000F07A
:100A300065F90021A12000F061F90021C02000F03B
:100A40005DF90021DA2000F059F90021122000F0B0
:100A500055F90021812000F051F90021EF2000F02C
:100A60004DF90021D92000F049F90021F12000F0D2
:100A700045F90021DB2000F041F90021302000F091
:100A80003DF90021A42000F039F90021A62000F052
:100A900035F90021AF2000F031F9FFF70FFF08BD55
:100AA000001401400010014098812242008022423F
:100AB00030B500241CE004F1B001C8B2002100F000
:100AC0001DF90021084600F019F90021102000F05E
:100AD00015F9002508E0084901EBC501085D012171
:100AE00000F00CF9681CC5B2802DF4DB601CC4B2A8
:100AF000082CE0DB30BD0000060100202DE9F84F96
:100B000080460F4616461C46BA462046E31704EBBD
:100B10005373DB1021464FEAE47C04EB5C7C4FEA24
:100B2000EC0CA4EBCC0CBCF1000F02D04FF0010C8C
:100B300001E04FF0000C6344224604EBD27C4FEA04
:100B40006C0C03FB0CF303F0FF0BA6F12000C6B204
:100B500000254EE00C2C07D106EB4600274901EB9F
:100B60008000405D009013E0102C05D1244800EB7C
:100B70000610405D00900BE0182C07D106EBC60074
:100B8000204901EB8000405D009001E0BDE8F88F56
:100B90004FF0000927E0009800F0800028B13946A6
:100BA00040460A9AFFF7A2FE09E00A9808B9012018
:100BB00000E00020024639464046FFF797FE0098C5
:100BC0004006000E0090781CC7B2A7EB0A00A042B6
:100BD00005D1574608F1010000F0FF0806E009F1D1
:100BE000010000F0FF09B9F1080FD4DB00BF681C59
:100BF000C5B25D45AEDB00BFC8E700009A2A000819
:100C00000E2F0008FE3400082DE9FF4F81B0074683
:100C100091461E460E9D4FF0000A002439E0301B1D
:100C2000401EC1B20A2001F057F8B9FBF0F00A21CA
:100C3000B0FBF1F201FB1208BAF1000F16D1701EE1
:100C4000A04213DDB8F1000F0ED10120AB4605EB39
:100C5000DB71491001FB04710090C8B22B462022C1
:100C60000299FFF74BFF12E04FF0010A0120AB465B
:100C700005EBDB71491001FB04710090C8B208F16B
:100C80003001CAB22B460299FFF738FF00BF601C43
:100C9000C4B2B442C3DB05B0BDE8F08FF8B5064678
:100CA0000F4615461C4621E004EBD4714910C1F1F2
:100CB0008001B14202DA00263819C7B2C4F14000FF
:100CC000B84204DA002006460746FFF7F7FD012088
:100CD00000902A78234639463046FFF70FFF20461A
:100CE00004EBD07106EB6101CEB26D1C28787E2832
:100CF00002DC28782028D7DAF8BD000010B5134BA5
:100D000019600023124CC4F89831002214E000232B
:100D1000104C236000F080031BB10123241D2360CD
:100D200003E000230B4C241D23600123094C2360A6
:100D30004306180E531CDAB2082AE8DB0123034CE1
:100D40000C342360024CC4F88C3110BD8C812242DB
:100D500000802242800122420848807808490870B9
:100D60000648C078074908700448007906490870A9
:100D7000024840790549087070470000340000209F
:100D800008000020090000200A0000200B000020BD
:100D900000B502463F48007840B92C2A06D1012010
:100DA0003C49087050B23C49087072E039480078FC
:100DB000012808D1122A06D102203649087050B203
:100DC0003549487065E033480078022806D1032091
:100DD0003049087050B2304988705AE02D48007888
:100DE000032806D104202B49087050B22A49C87044
:100DF0004FE028480078042806D1052025490870CE
:100E000050B22549087144E022480078052806D1EF
:100E100006202049087050B21F49487139E01D482A
:100E20000078062821D15B2A08D1002019490870D2
:100E300050B219498871FFF78FFF2AE05B2A28D04A
:100E40000020144908701549086009E00020124983
:100E5000124B1B68C85411480068401C0F490860B9
:100E60000E4800680728F1DB13E0002009490870EC
:100E70000A49086009E000210748084B1B68C15473
:100E800006480068401C05490860044800680728B7
:100E9000F1DB00BD16000020340000200C00002013
:100EA000FCB502462F2300BF00208DF805008DF809
:100EB00004008DF803008DF8020001208DF8010078
:100EC00007208DF800002F2300250521002409E0CC
:100ED000581EC3B2072C02DA601CC4B202E0002420
:100EE000481EC1B2505C80272741384008B900290C
:100EF000EEDCA3F10800C5B21EE0052118E0481E93
:100F00001DF8000000F0800018B1002901DD012665
:100F100000E000261DF801004006000E0DF801005B
:100F20001DF801003044C0B20DF80100481EC1B2E6
:100F3000FF29E4DB681EC5B2002DDED1002106E0EA
:100F4000505C1DF8017078405054481CC1B205290E
:100F5000F6DD082BA8DC1078FCBD000029B1064A9C
:100F600092690243044B9A6104E0034A9269824306
:100F7000014B9A61704700000010024030B500211B
:100F80000022002400232D4D6D6805F00C0121B1D5
:100F9000042905D0082923D105E0294D056022E068
:100FA000274D05601FE0254D6D6805F47012234D37
:100FB0006D6805F48034022505EB92421CB9214D81
:100FC000554305600BE01D4D6D6805F400351DB1FE
:100FD0001C4D5543056002E0194D5543056002E084
:100FE000174D056000BF00BF144D6D6805F0F0019E
:100FF0000909154D6B5C0568DD4045600F4D6D6856
:1010000005F4E061090A104D6B5C4568DD408560C0
:101010000A4D6D6805F46051C90A0B4D6B5C45685B
:10102000DD40C560054D6D6805F44041890B074DF5
:101030006B5CC568B5FBF3F5056130BD001002407F
:1010400000127A0000093D00170000202700002050
:10105000002107E0002201E0531C9AB28242FBDB30
:101060004B1C99B20429F5DB7047000008B501213B
:101070000820FFF773FFC020ADF8000014208DF8A2
:10108000030003208DF8020069460548FFF708F9C0
:1010900040200349103108608020086008BD00002E
:1010A000000C01402DE9FC4F04460D464FF00009AD
:1010B000CA46CB466006040E00BF00BF00F07CF9B4
:1010C000ABF1010000F0FF0BBBF1000F00D136E0E7
:1010D00000F054F9204600F039F900B1EEE7284657
:1010E00000F034F900B1E9E700F048F9611CC8B23A
:1010F00000F02CF900B1E1E7002000F0EFF88146A4
:10110000002000F0EBF88246012000F0E7F880466E
:1011100000F052F98DF805408DF80450601CC0B203
:101120008DF803008DF802908DF801A000208DF855
:1011300000006846FFF7B4FE06464645BDD100BF35
:1011400049EA0A273846BDE8FC8F00002DE9F04F38
:101150009BB00546002435E007210020FFF7A2FFE1
:10116000019000F05DFF484A484BCDE9020100F0D4
:101170006BFF4FF06632464BCDE9040101F062F897
:10118000074600F073FE83467DB1584601F044F9EE
:10119000404A414BCDE9040100F09AFE074600F0B9
:1011A00065FE07A941F8240007E04FF0804158464A
:1011B00001F05EF907A941F824000A2000F01AFBAB
:1011C000601CC4B2142CC7DBDDE9070101F050F943
:1011D0000090099901F04CF901900A9901F048F941
:1011E00002900B9901F044F903900C9901F040F939
:1011F00004900D9901F03CF905900E9901F038F931
:1012000080460F9901F034F90746109901F030F942
:101210002249069001F09AF98146DDE9110101F0B9
:1012200027F90090139901F023F90190149901F026
:101230001FF98046159901F01BF90746169901F030
:1012400017F90290179901F013F90390189901F01A
:101250000FF90490199901F00BF905901A9901F012
:1012600007F90E49069001F071F982465146484649
:1012700001F0FEF807464FF0804101F067F906469D
:1012800030461BB0BDE8F08F7B14AE47E17A943F47
:1012900066127140AE47E17A14AE0F400000204163
:1012A00010B580200C490860402008600220FFF73C
:1012B000CFFE09480838006800F0800008B101241A
:1012C00000E0002440200449091D08600420FFF7C5
:1012D000BFFE204610BD0000100C014070B5064650
:1012E00008250DE0FFF7DCFF20B16006040E44F096
:1012F000010403E06006040E04F0FE04681EC5B29B
:10130000002DEFD1304600F003F8204670BD0000FC
:1013100010B504461CB980200B49086003E080200A
:101320000949091F08600220FFF792FE4020064984
:10133000091F08600A20FFF78BFE40200249086061
:101340000A20FFF785FE10BD140C0140F0B50446DD
:1013500008250CE004F0800008B1012600E000261A
:101360003046FFF7D5FF6006040E681EC5B2002D9B
:10137000F0D1FFF795FF07463846F0BD00B5802055
:101380000C4908600120FFF763FE4020094908600E
:101390000520FFF75DFE80200649091D08600A2030
:1013A000FFF756FE40200349091D08600220FFF7A1
:1013B0004FFE00BD100C014000B540200B490860F5
:1013C0000520FFF745FE8020084908600520FFF74B
:1013D0003FFE40200549091F08600A20FFF738FE3C
:1013E00080200249091F086000BD0000140C014064
:1013F00030B504460025FFF7EBF91F48006840F4BC
:1014000080301D49086000BF1B480068400C002860
:10141000FAD04FF4806018494860A01EC4B2084654
:10142000406840EA844048600846406840F48030A4
:1014300048601248006840F03200104908600E48C9
:10144000006840F080700C49086000BF0A480068DE
:10145000400E0028FAD00848406840F002000649D3
:10146000486005E004484068C0F3870505F00305BF
:10147000022DF7D130BD00000010024000200240D4
:1014800010B50121084800F016F858B101210648AE
:1014900000F00EF80548006808B9012000E00020BF
:1014A0000249086010BD0000000400409401214280
:1014B000CA430282704730B5024600200023002450
:1014C000158A05EA0103958905EA010413B10CB1F7
:1014D000012000E0002030BD10B540F22551094840
:1014E00000F090F868B140F22551064800F06FF81E
:1014F000044800F043F9C4B22046FFF749FCFFF767
:101500002BFC10BD0038014000B587B001218803D5
:10151000FFF724FD01210420FFF720FD4FF40070A8
:10152000ADF8180003208DF81A0018208DF81B0064
:1015300006A92048FEF7B4FE4FF48060ADF818000D
:1015400004208DF81B0006A91A48FEF7A9FE2520E5
:101550008DF8040000208DF8050002208DF80600AB
:1015600001208DF8070001A8FFF770F94FF4E13072
:1015700002900020ADF80C00ADF80E00ADF81000A0
:10158000ADF814000C20ADF8120002A90A4800F0D2
:1015900089F8012240F22551074800F05DF8012149
:1015A000054800F023F84021034800F007F807B091
:1015B00000BD0000000801400038014001F4007245
:1015C000B2F5007F00D100BFCA430280704710B55A
:1015D0000022002340F66A14A14200D100BF0A1283
:1015E00001249440A3B2DC43048010BD21B1828960
:1015F00042F40052828104E082894DF6FF731A4062
:101600008281704770B50246002400230025002027
:1016100040F66A16B14200D100BFC1F3421501F095
:101620001F03012606FA03F3012D02D196893340E8
:1016300006E0022D02D1168A334001E0968A33403B
:101640000C12012606FA04F41688344013B10CB1CA
:10165000012000E0002070BDF0B503460024002604
:101660000025002040F66A17B94200D100BF184695
:10167000C1F3421401F01F06012707FA06F5012CF9
:1016800001D10C3004E0022C01D1103000E0143004
:101690001AB107682F43076002E00768AF4307608D
:1016A000F0BD00002DE9F04786B005460E46002447
:1016B000A24600BFA1460027B08900B100BF2F4657
:1016C0002C8A4CF6FF700440F08804432C82AC89CD
:1016D0004EF6F3100440B0883189084371890843FD
:1016E0000443AC81AC8A4FF6FF400440B089044308
:1016F000AC8201A8FFF742FC1F48874202D1DDF807
:1017000010A001E0DDF80CA0A88900F4004040B171
:101710000AEBCA0000EB0A1031684900B0FBF1F88F
:1017200007E00AEBCA0000EB0A1031688900B0FB41
:10173000F1F86420B8FBF0F004012009642101FBFA
:101740001089A88900F4004040B1322000EBC900A4
:10175000B0FBF1F000F00700044308E0322000EB9A
:1017600009106421B0FBF1F000F00F0004432C815C
:1017700006B0BDE8F08700000038014001468888C7
:10178000C0F30800704700BF7047000010B501208B
:1017900006490860502000F02DF800200449C1F8E7
:1017A000A001502000F026F810BD0000A0812142C9
:1017B000008021424FF0E021096921F004014FF03F
:1017C000E0221161C21700EB5272C2F3C702074B4D
:1017D0001A701946097801EB4102C2EBC1114FF6AC
:1017E000FF7202EAC101024A118070470400002022
:1017F0000600002001460D4A12884A434FF0E023BC
:101800005A6100229A6101221A6100BF4FF0E02262
:10181000106900F001021AB100F48032002AF5D0FC
:1018200000224FF0E0231A619A6170470600002001
:1018300001460D4A12784A434FF0E0235A610022D4
:101840009A6101221A6100BF4FF0E022106900F096
:1018500001021AB100F48032002AF5D000224FF0C4
:10186000E0231A619A6170470400002010B5044615
:1018700014B101202D4908702C480078002835D07B
:1018800001212B48FEF797FD70B102212848FEF791
:1018900092FD48B104212648FEF78DFD20B10821B4
:1018A0002348FEF788FD08BB0A20FFF7A3FF0020AE
:1018B0001E49087001211E48FEF77DFD08B9012070
:1018C00010BD02211A48FEF776FD08B90220F7E79D
:1018D00004211748FEF76FFD08B90320F0E708213F
:1018E0001348FEF768FDF0B90420E9E70F480078D7
:1018F000C8B101210E48FEF75EFD012813D1022177
:101900000B48FEF758FD01280DD104210848FEF7C9
:1019100052FD012807D108210548FEF74CFD01289A
:1019200001D1024908700020CAE700003100002000
:101930000008014008B54FF000090920FFF758FDE5
:101940004820FFF737FF4FF4E130FFF7DDFDFFF7E9
:1019500001F8FFF78BFBFEF73BFDFEF711FFFEF7EB
:1019600083FC35E10120FFF781FF012806D0022822
:1019700006D0032806D0042808D105E0012505E09B
:10198000022503E0032501E0042500BF00BF012D6F
:101990007DD1FEF79FFD834600F0D6F9002877D071
:1019A000022E1FD1FEF78AFF10238AA200211920E0
:1019B000FFF774F910238AA219210020FFF76EF9AE
:1019C000012010232E22192100903C20FFF796F8C9
:1019D0000A20FFF70FFF102383A228210020FFF722
:1019E0005DF90126FEF776FD834600F003FA20B18B
:1019F0000020FFF7ABFB824603E00120FFF7A6FBC8
:101A000082464AE001207C490860FEF763FD0A280F
:101A100007D100BFFEF75EFD0A28FBD04FF0010999
:101A20000AE0FEF757FD0B2806D100BFFEF752FD76
:101A30000B28FBD04FF00209B9F1000F06D0B9F125
:101A4000010F07D0B9F1020F14D10BE003274FF0BB
:101A500007080FE0FEF73EFD052802DAFEF73AFD23
:101A6000074607E0FEF736FD0A2802DAFEF732FDE8
:101A7000804600BF00BF07EB870008EB4000C4B200
:101A8000102002232246282100905A2001E029E05C
:101A90001AE0FFF7B9F8FFF70BF8FEF71BFD8346D6
:101AA00000F038F90028ADD1504600F0BDF92146CC
:101AB000504600F01DF900204F490860504600F0E4
:101AC0005DF9FEF7F5FF0DE0022E02DAFEF7F6FEF5
:101AD0000226012048490860102348A20021084638
:101AE000FFF7DCF8022D71D14A480068022804D1C2
:101AF000FEF7E4FE012047490860102346A20021BA
:101B00000846FFF7CBF84FF47A60FFF773FE102317
:101B100047A228210020FFF7C1F80A20FFF76AFE3C
:101B20004A48007801280BD049480078022807D09D
:101B300048480078032803D04748007804283CD15F
:101B4000102346A200210A20FFF7A8F80220FFF781
:101B500051FE3E480078012808D1102346A21921E1
:101B60000020FFF79BF8FEF7A3FF2FE0384800782E
:101B7000022808D1102345A219210020FFF78EF872
:101B8000FEF796FF22E033480078032808D110239F
:101B900043A219210020FFF781F8FEF789FF15E025
:101BA0002D480078042811D1102342A200210846B4
:101BB000FFF774F8FEF77CFF08E010233FA2002136
:101BC0000846FFF76BF8012012490860FEF770FF26
:101BD000C8E6000074656D702074657374000000C1
:101BE00074656D703A00000074656D705F6C696DAE
:101BF00069743A333700000094812142706C65614A
:101C00007365206B65792074656D70202E2E2E2EE5
:101C10002E00000000000020506C65617365206399
:101C20006C69636B2072657365742E2E2E00000044
:101C30004964656E7469667920696E2074686520F0
:101C4000666163652E2E2E2E000000000800002025
:101C5000090000200A0000200B0000206964656E66
:101C600074696669636174696F6E2020202020208A
:101C700020202020000000006E616D653A786961C7
:101C80006F6B616E67736F6E670000006E616D65EC
:101C90003A6368656E6772756A69612020000000AA
:101CA0006E616D653A6D6179756D616F20202020E0
:101CB000000000006572726F723200004964656E48
:101CC00074696669636174696F6E206661696C75B9
:101CD000726520202020200010B50246012000E07F
:101CE00050430B00A1F10104E1B2F9D110BD000095
:101CF00070B504460D46284600F00AFD064621460A
:101D000000F01AFD02D201200149086070BD0000F8
:101D10009401214210B504460C2C09D100BFFEF7F6
:101D2000D9FB0C28FBD007480078401C05490870F7
:101D300004480078022802DB0020024908700148AC
:101D4000007810BD2F00002010B504460F2C09D1DB
:101D500000BFFEF7BFFB0F28FBD007480078401CF0
:101D60000549087004480078022802DB0020024977
:101D700008700148007810BD2D0000202DE9F843BF
:101D80000446204600F0A4FC804610200223424670
:101D9000192100902A20FEF737FF404600F0B8FCDA
:101DA0008146214600F0F9FD04461149204600F025
:101DB000F7FC814600F08CFC05460A20B5FBF0F7E5
:101DC000102001233A46192100904220FEF71CFF03
:101DD0000A20B5FBF0F100FB11561020012332461A
:101DE000192100904A20FEF70FFFBDE8F88300009C
:101DF0000000C84210B504460E2C09D100BFFEF702
:101E000069FB0E28FBD007480078401C0549087084
:101E100004480078022802DB0020024908700148CB
:101E2000007810BD2E00002010B504460B49204656
:101E300000F082FC04D30A49204600F07DFD02D266
:101E4000FFF7A4FC08E00020064908600649C1F835
:101E5000940104490C31086010BD00000000E0410D
:101E600000004042948121420000234221F00042C0
:101E7000A2F16052B2F5801F01F0004328BFD2F1F9
:101E80007F6C0BD95FEA001C43EAC20242EB507040
:101E900018BF704728BF20F001007047B2F5801FBF
:101EA000BCBF184670474FEA410C1CF5001F02D218
:101EB000084600F03CBD70B500F070F900000089E4
:101EC000FFF7F6BF4FF00040A0F58000704700001C
:101ED00010B591EA030F48BF83F0004300F1BA81C7
:101EE000841A71EB030C05D2121943EB0C03001B8F
:101EF00061EB0C01DFF824E14FEA1154A4EB135C11
:101F00001EEA430F18BF9EEA445F73D023EA0E0314
:101F1000DCF1200E21EA045143F4801332D322FA7B
:101F20000CFE10EB0E0023FA0CFE41EB0E01CCF17F
:101F3000200E03FA0EFE10EB0E0051F10001B1F578
:101F4000801FCCF1200E32D201EB045112FA0EF2B6
:101F5000BDE8104058BF7047401C38BF5FEA4202DE
:101F600018BF7047002814BF20F0010041F10001A4
:101F70004FEA410313F5001F38BF7047A1F1C0417C
:101F800000F05AB9012A43EB0302ACF1200CDCF15A
:101F90001F0E32BF4FF0000E23FA0CF310EB0300BC
:101FA00041EB0451B4EB115FD0D0A1EB045101F52A
:101FB000801149085FEA300001EB04510ED350F163
:101FC000000038BF12FA0EFE08D1BDE81040C9E784
:101FD000401C38BF5FEA4202CAD1C3E7BDE81040E7
:101FE0004FEA410313F5001F38BF7047A1F1C0410C
:101FF00000F022B99EEA445F08D011EA5E0FBDE806
:10200000104004BF01F0004100207047BDE81040BF
:1020100070B500F0C3F800BF64FBBE3E0000E0FFF7
:10202000B0FA80F310FA03F10AD0C3F11D0303F5EF
:1020300080634FEA41504FEA035202EBD1217047CF
:102040004FF0000070470000DFF848C170B51CEA8F
:10205000111E1EBF1CEA13159EEA0C0F95EA0C0F09
:1020600000F06F8081EA030423EA4C134EEAD47E29
:1020700021EA4C1141F4801143F48013AE44A1FBDA
:10208000024CA0FB0365AEF17F7E361955EB0C05C3
:10209000A1FB034C4CF10003A0FB021C16EB0C0649
:1020A000654153F10003094218BF46F0010613F4DD
:1020B000007F0BD14FEA03314FEA0530340341EA88
:1020C000155140EA16506FF003020AE04FEAC321AF
:1020D0004FEAC520F40241EA555140EA56506FF0EC
:1020E000020202EB2E4201EB025585EACE710AD0C4
:1020F0005FEA440C18BF24F0004450F1000041F1A5
:10210000000120EAD47040F2FE7C624500D270BD2E
:10211000A84214BF4FF080444FF04044002E08BF47
:102120000024BEF1806FA8BFA1F1C041BDE870409E
:1021300080F282804FF0000001F1C04101F00041C7
:1021400070479EEA0C0F0CEA131518BF95EA0C0FA6
:1021500006D04FF0000081EA030E0EF0004170BD82
:1021600000F01CF88900013E00F007B800F009B843
:102170004FEA430C5FEA5C5C08D081EA030100F09F
:102180005BB84FEA410C5FEA5C5CF6D14FF00000AF
:10219000014970470000FF070000F87F0EF1020EB2
:1021A0002EF0030E5EF8046B364205D4012A43EB91
:1021B000030515F5001F12D8012841EB010C1CF591
:1021C000001F0CD80ED14FEAD17C15F5001F0CEB87
:1021D0004C0C0CF1020C08BF4CEBD37C04E04FF02C
:1021E000080C01E04FEAD37C0CEB4C0526FA05F60F
:1021F00006F00706B6F1040C06D20EEB860CBDE81D
:1022000070404CF0010C6047DFE80CF0090B020253
:102210004FF000414FF00000A1F5002170BD1946BC
:102220001046012851EB010418BFD4F5001484BFF7
:10223000002001F0004170BD0808A0F500114FEA30
:102240003101704710B591EA030F48BF83F0004396
:102250003FF546AE841A71EB030C07D212198CF0CD
:10226000004C43EB0C03001B61EB0C01DFF8A4E115
:102270004FEA1154A4EB135C1EEA430F18BF9EEA09
:10228000445F00F0B08023EA6E03524221EA045119
:10229000C3EB6E0338BF5B1EDCF1200E25D322FAA0
:1022A0000CFE10EB0E0043FA0CFE41EB0E01CCF1DC
:1022B000200E03FA0EFE10EB0E0051F10001CCF1DE
:1022C000200E29D412FA0EF201EB0451BDE81040A1
:1022D00058BF7047401C1CBFB2F1004F7047002828
:1022E0000CBF491C20F00100704712EB020E43EBBB
:1022F000030218BF4FF0010E4EEA4202ACF1200C6F
:10230000DCF11E0E54D943FA0CFE10EB0E0051F115
:10231000FF31CCF11E0ED5D50EF1010E12FA0EFED4
:10232000404141EB010101EB445C5FEA5C5C10D988
:1023300010EBDE7001EB045138BFBEF1004FBDE879
:10234000104018BF704700280CBF491C20F0010046
:10235000704730D24FEAD42C11F5001124F40064F8
:102360001BD0B1FA81F20B3AA41AA41ED2F12003B9
:10237000914030FA03F31943904001EBCC71002CEB
:1023800001EB0451BDE81040A8BF704701F1C04106
:102390004FF0000001F000417047B0FA80F310FAEE
:1023A00003F100D110BDE41A173C4805C90AE4E75F
:1023B00001EB045110BD491001EB0451BDE8104080
:1023C0004FEA300002E04FF0000170474A0008BFBA
:1023D0000042F8D0B2F5001F28BF704701F000415D
:1023E0004FF0000070479EEA445F07D011EA5E0F8D
:1023F000BDE8104004BF002100207047BDE8104038
:1024000070B5FFF7CBFE00BF40DFF63E83F0004122
:10241000104670470000E0FF43004FEAD30C4FEA3C
:102420003C0C43401FBF40070CF1605113F0FE4FBE
:1024300070471CF0006F03D100200CF00041704782
:102440000CF0004343EA507010B540EACC0000F0B5
:1024500028FA00BF000000924FEA0001FFF7ECBE2F
:102460004FF000414FF00000A1F50021704700003F
:1024700090EA010F48BF81F0004100F1A082421AAA
:102480003CBF801A89184FEAD0524FF07F4C1CEAAB
:10249000410FA2EBD15318BF9CEA026F00F03B80C2
:1024A0004FF0004C4CEA00204CEA012121FA03FCD9
:1024B00010EB0C0C1ED202F1FF325FEA1C2040EB45
:1024C000C25038BF70471CF07F0F4FEA400C18BF56
:1024D000BCF17F4F38BF7047C3F12003994008BF5C
:1024E00020F00100BCF17F4F38BF7047A0F1C04021
:1024F00000F01DBA4FEA3C00000A40EBC25028BF72
:102500001CF0FF0F4FEA400CE6D018BFBCF17F4F24
:1025100038BF7047EAE79CEA026F05D010EA5C0F0B
:1025200008BF00F00040704710B500F0BAF900BFD6
:1025300064FBBE3E401058BFC0F14040491058BF38
:10254000C1F140418142EFF3008070474FF47F0CAE
:102550001CEAD0121EBF1CEAD11392EA0C0F93EAB8
:102560000C0F00F0858090EA010F48BF42F48072A2
:1025700040F4000C41F400002CF07F4120F07F403B
:1025800000B58142A2EB03020FF2081CACEB504EE7
:10259000C0F100009EF800E04FEA4E0E00FB0EFC7A
:1025A00038BF49004FEA2C1C02F5FA020CFB0EF36F
:1025B0004FEACE1E4FEA112C4FEAC1210EEB635EAB
:1025C00042EB22420EFB0CFC4FEA1C5300FB0311B2
:1025D0004FEA112C4FEA01310EFB0CFC4FEADC4CA8
:1025E00000FB0C11C14228BF09184CEB03335DF806
:1025F00004EB10EB410143EBC250B2F57C0F38BF46
:10260000704729D512F0F00F1CBF00F1C04000F058
:1026100000407047008182838485868788898B8CFF
:102620008D8E8F919293959697999A9C9D9FA0A23B
:10263000A3A5A7A8AAACAEB0B2B3B5B7B9BCBEC08B
:10264000C2C5C7C9CCCED1D4D7D9DCDFE2E6E9EC2C
:10265000F0F3F7FAFE0000004FEA400C0CF1807C2A
:10266000BCF17E4F28BF7047B0F1C04000F05FB9A9
:1026700090EA010F0CEAD11348BF42F48072624520
:1026800038BF634507D213F47F0F16D080EA0100EC
:1026900000F00040704710B500F003F9097EFC3EE1
:1026A00000F005B880EA010000F00040704780EAC1
:1026B000010000F0004000F03AB912F47F0F04BFAF
:1026C0000248704780EA010000F031B90000C07F85
:1026D000C10DD1F19E0206DB4FEA002343F0004317
:1026E00023FA02F07047004207D54FEA4001B1F1EA
:1026F000FE4F02D24FF00000704710B500F0D1F845
:1027000049922480002070476FEA20007047000043
:10271000B0FA80F310FA03F2C3F19D030AD0D90591
:1027200001EB1220530638BF704700F1010008BFCB
:1027300020F001007047000050EA010C00F1138006
:102740001CF5000F58BFBCF5000F01D4884270473C
:1027500007D710F5000F58BF11F5000F15D48842A8
:102760007047894270471CF5000F04D5BCF5000F77
:10277000F7D5814270474FF0807C1CEB400F38BF8B
:102780001CEB410F01D28142704710B500F089F86F
:10279000922449004FF000504FF08051FFF7CABE1D
:1027A0004FF47F0C1CEAD0121EBF1CEAD11392EA30
:1027B0000C0F93EA0C0F00F0478090EA010F48BF1E
:1027C00042F480724FF0004C4CEA00204CEA0121A8
:1027D00002EB0302A0FB0113A2F50002002918BFBF
:1027E00043F001035B0028BF4FEA330342EB224270
:1027F0005FEA132C4CEBC2502EBFBCEB436FB2F51B
:102800007C0F70474FEA036CBCF1004F08BF20F00B
:102810000100B2F57C0F38BF70470BD582F0FF0284
:1028200012F5803FC8BF704700F1C040D8BF00F02C
:102830000040704700F5000C5FEA4C0C48BF704741
:10284000B0F1C04000F073B890EA010F0CEAD11368
:1028500048BF42F48072624538BF634504D280EAC3
:10286000010000F00040704710B500F01AF800BFFA
:102870008900013E00F007B800F009B85FEA410C9A
:102880005FEA1C6C08D080EA010000F050B85FEAF3
:10289000400C5FEA1C6CF6D14FF00040A0F58000C0
:1028A00070470EF1020E2EF0030E5EF8044B244228
:1028B00004D44FEA4102B2F17F4F11D84FEA4003EE
:1028C000B3F17F4F0CD80ED14FEAD07CB2F17F4FDD
:1028D0000CEB4C0C0CF1020C08BF4CEBD17C04E06F
:1028E0004FF0080C01E04FEAD17C0CEB4C0324FACA
:1028F00003F404F00704B4F1040C06D20EEB840CCC
:10290000BDE810404CF0010C6047DFE80CF0070810
:1029100002024FF00040A0F5800010BD08464200C2
:1029200018BFD2F1807288BF00F0004010BDFF21B7
:1029300041EAD050C005704751EA000C00F1138005
:102940001CF5000F58BFBCF5000F01D48142704741
:1029500007D711F5000F58BF10F5000F15D48142AD
:102960007047894270471CF5000F04D5BCF5000F75
:10297000F7D5884270474FF0807C1CEB410F38BF81
:102980001CEB400F01D28842704780EA010081EAC7
:10299000000180EA0100FFF7F8BE80F0004090EAF5
:1029A000010F7FF56CAD81F0004100F008B8000028
:1029B00090EA010F48BF81F000413FF560AD421A37
:1029C00004D882F00042A0EB020011444FEAD0523A
:1029D0004FF07F4C1CEA410FA2EBD15318BF9CEA89
:1029E000026F4AD04FF0004C4CEA00204CEA012123
:1029F00021FA03FCB0EB0C0C0FD412F0FE0F36D012
:102A00005FEA4C001DD5001240EBC25038BF704742
:102A10001CF03F0F18BF70470BE0A2F101025FEA04
:102A20001C2040EBC25038BF70471CF07F0F18BF0E
:102A30007047C3F12003994014BF401E20F00100ED
:102A4000704780084FEA122308BF7047B0FA80FC35
:102A5000A2EB0C02CCF1280C60FA0CF093EA122FD6
:102A600004BF00EBC25070474FEAC3707047130AAF
:102A70005FEADC1008BF7047F6E79CEA026F04D0FB
:102A800010EA5C0F08BF0020704710B5FFF709FF80
:102A900040DFF63E81F0004070470000000000007B
:102AA000000000000000000000003F4000000000A7
:102AB000000000003000400030004000000009002D
:102AC0000BC03D000BC03D00090018C024407FE052
:102AD000224031800000180024C01B000D803240CD
:102AE000018003801C4027401C80074000401000EC
:102AF0006000000000000000000000000000000076
:102B00001F80204040200000402020401F80000007
:102B10000000090006001F800600090000000400F4
:102B200004003F800400040000000010006000006A
:102B30000000000000000400040004000400040081
:102B40000000000000400000000000000000002025
:102B500001C006003800400000001F8020402040D7
:102B600020401F800000000010403FC000400000D7
:102B7000000018C02140224024401840000010806E
:102B80002040244024401B80000002000D00110062
:102B90003FC0014000003C8024402440244023806A
:102BA00000001F8024402440344003800000300097
:102BB000200027C03800200000001B802440244053
:102BC00024401B8000001C0022C0224022401F80A5
:102BD00000000000000008400000000000000000AD
:102BE00000000460000000000000000004000A0073
:102BF0001100208040400900090009000900090077
:102C0000000000004040208011000A00040018006D
:102C1000200023402400180000001F80204027408F
:102C200029401F400000004007C039000F0001C0CC
:102C3000004020403FC0244024401B8000001F80F3
:102C40002040204020403080000020403FC02040F5
:102C500020401F80000020403FC024402E4030C054
:102C6000000020403FC024402E00300000000F0034
:102C70001080204022403380020020403FC00400EA
:102C800004003FC02040204020403FC02040204062
:102C900000000060202020203FC0200020002040B5
:102CA0003FC024400B0030C0204020403FC02040A7
:102CB0000040004000C03FC03C0003C03C003FC09B
:102CC000000020403FC00C4023003FC020001F8078
:102CD0002040204020401F80000020403FC0244072
:102CE0002400180000001F802140214020E01FA088
:102CF000000020403FC02440260019C0004018C0FA
:102D000024402440224031800000300020403FC059
:102D100020403000000020003F80004000403F8005
:102D2000200020003E0001C00700380020003800CD
:102D300007C03C0007C038000000204039C0060032
:102D400039C0204000002000384007C03840200033
:102D50000000304021C02640384020C00000000064
:102D600000007FE0402040200000000070000C00C8
:102D70000380004000000000402040207FE0000071
:102D800000000000200040002000000000000010B3
:102D900000100010001000100010000000004000A3
:102DA000000000000000000002800540054003C054
:102DB000004020003FC004400440038000000000A9
:102DC00003800440044006400000000003800440EB
:102DD00024403FC000400000038005400540034000
:102DE0000000000004401FC02440244020000000D8
:102DF00002E0055005500650042020403FC004402A
:102E0000040003C000400000044027C00040000050
:102E1000000000100010041027E000000000204017
:102E20003FC00140070004C00440204020403FC094
:102E300000400040000007C0040007C0040003C0B9
:102E40000000044007C00440040003C0004000002C
:102E500003800440044003800000041007F0045085
:102E6000044003800000000003800440045007F089
:102E70000010044007C002400400040000000000ED
:102E800006400540054004C00000000004001F800B
:102E9000044000400000040007800040044007C0D8
:102EA00000400400070004C0018006000400060082
:102EB00001C0070001C006000000044006C0010078
:102EC00006C0044000000410071004E00180060062
:102ED00004000000044005C006400440000000005B
:102EE000000004007BE04020000000000000000023
:102EF000FFF000000000000040207BE00400000024
:102F00000000400080004000200020004000000041
:102F100000000000000000000000000000000000B1
:102F2000000000001FCC000C0000000000000000AA
:102F3000080030006000080030006000000002203F
:102F400003FC1E20022003FC1E20022000000000C3
:102F50000E1811043FFF10840C78000000000F00D1
:102F600010840F3800C007781884007800000078BB
:102F70000F8410C411240E9800E400840008080097
:102F80006800700000000000000000000000000069
:102F90000000000007E018182004400200000000B4
:102FA00040022004181807E0000000000000024062
:102FB000024001800FF001800240024000000080CA
:102FC000008000800FF80080008000800000000179
:102FD000000D000E000000000000000000000000D6
:102FE0000080008000800080008000800080000061
:102FF000000C000C000000000000000000000000B9
:103000000006001800600180060018002000000083
:1030100007F0080810041004080807F0000000007A
:10302000080408041FFC0004000400000000000065
:103030000E0C10141024104411840E0C000000001B
:103040000C1810041104110412880C700000000008
:1030500000E00320042408241FFC002400000000DA
:103060001F981084110411041088107000000000D3
:1030700007F008881104110418880070000000008F
:103080001C00100010FC13001C00100000000000C9
:103090000E3811441084108411440E3800000000D2
:1030A0000700088C10441044088807F00000000056
:1030B00000000000030C030C0000000000000000F2
:1030C00000000001010600000000000000000000F8
:1030D00000800140022004100808100400000220B3
:1030E0000220022002200220022002200000000014
:1030F00010040808041002200140008000000000B5
:103100000E001200100C106C10800F00000003E085
:103110000C1813E4142417C4082807D00000000476
:10312000003C03C41C40074000E4001C00041004E1
:103130001FFC1104110411040E880070000003E04C
:103140000C1810041004100410081C1000001004C7
:103150001FFC100410041004080807F000001004FD
:103160001FFC1104110417C41004081800001004F7
:103170001FFC1104110017C010000800000003E03C
:103180000C181004100410441C78004000001004B7
:103190001FFC10840080008010841FFC10040000BD
:1031A000100410041FFC10041004000000000003B1
:1031B0000001100110011FFE10001000000010049B
:1031C0001FFC110403801464181C10040000100478
:1031D0001FFC1004000400040004000C0000100494
:1031E0001FFC1F0000FC1F001FFC10040000100447
:1031F0001FFC0C04030000E010181FFC100007F077
:103200000808100410041004080807F00000100457
:103210001FFC10841080108010800F00000007F049
:10322000081810241024101C080A07F200001004CB
:103230001FFC1104110011C011300E0C000400001D
:103240000E1C11041084108410441C380000180057
:10325000100010041FFC10041000180000001000E3
:103260001FF810040004000410041FF810001000E0
:103270001E0011E0001C007013801C0010001FC015
:10328000103C00E01F0000E0103C1FC000001004D4
:10329000180C163401C001C01634180C10041000AC
:1032A0001C00130400FC13041C00100000000804A0
:1032B000101C1064108413041C041018000000007B
:1032C000000000007FFE40024002400200000000BB
:1032D00030000C0003800060001C000300000000B0
:1032E0004002400240027FFE00000000000000009B
:1032F00000002000400040004000200000000001CD
:1033000000010001000100010001000100010000B6
:10331000400040002000000000000000000000000D
:103320000098012401440144014400FC0004100001
:103330001FFC0088010401040088007000000000E8
:1033400000700088010401040104008800000000EE
:10335000007000880104010411081FFC0004000033
:1033600000F8014401440144014400C80000000089
:10337000010401040FFC11041104110018000000E5
:1033800000D601290129012901C901060000100404
:103390001FFC008401000100010400FC0004000087
:1033A0000104190419FC00040004000000000000DE
:1033B000000300010101190119FE000000001004C2
:1033C0001FFC0024004001B4010C010400000000B7
:1033D000100410041FFC000400040000000001049D
:1033E00001FC0104010001FC0104010000FC0104D6
:1033F00001FC008401000100010400FC0004000045
:1034000000F8010401040104010400F800000101B6
:1034100001FF008501040104008800700000000025
:103420000070008801040104010501FF000101048E
:10343000010401FC0084010401000180000000007F
:1034400000CC012401240124012401980000000083
:103450000100010007F80104010400000000010060
:1034600001F8000400040004010801FC000401004C
:1034700001800170000C001001600180010001F06A
:10348000010C003001C00030010C01F0010000000F
:103490000104018C00740170018C01040000010121
:1034A00001810171000E001801600180010000001F
:1034B0000184010C013401440184010C000000006E
:1034C00000000000000001003EFC4002400200003D
:1034D000000000000000FFFF0000000000000000EE
:1034E000400240023EFC010000000000000000001D
:1034F00060008000800040004000200020000000AC
:1035000000000000000000000000000000000000BB
:1035100000000000000000000000000000000000AB
:10352000000000000000000000000000000000009B
:10353000000F80380FFE380F8038000000000000B8
:103540000000000000000000000000000100000674
:1035500000000C00003800003100000600000C00E4
:103560000038000030000000000000000000618012
:103570000067F807F98000618000618000618000C9
:1035800061800067F807F98000618000000000009A
:103590000000000001C0E003E0F006300804180855
:1035A0001FFFFE040E080787F00381E00000000003
:1035B000000001F000060C00040408060C7001F97C
:1035C000C0000E00003BE000EC18070808040C18CF
:1035D0000003E00000000001E00007F003F8180419
:1035E0001C0804170807E1D003C0E00023B0003C2A
:1035F000080020080000100000000000000100008A
:103600003100003200001C0000000000000000003B
:1036100000000000000000000000000000000000AA
:1036200000000000000000000000000000007F001B
:1036300001FFC00780F00C001810000420000200F9
:1036400000000000002000021000040C0018078099
:10365000F001FFC0007F000000000000000000003B
:1036600000000000000000000000420000660000B2
:103670006600003C0000180003FFC0001800003C7A
:103680000000660000660000420000000000080024
:1036900000080000080000080000080001FFC0004A
:1036A00008000008000008000008000008000000F2
:1036B0000000000100003100003200001C0000008A
:1036C00000000000000000000000000000000000FA
:1036D00000000000000008000008000008000008CA
:1036E00000000800000800000800000800000800B2
:1036F000000800000000000000000000000038008A
:103700000038000038000000000000000000000049
:1037100000000000000000000000000000000006A3
:1037200000001C000070000180000E000038000046
:10373000C0000700001C0000300000000000000076
:1037400000007F8001FFE00380700600180400087D
:1037500004000806001803807001FFE0007F80006D
:103760000000000000000000010008010008010046
:103770000803FFF807FFF800000800000800000831
:1037800000000000000000000001C03802C0580422
:103790000098040118040218040418061C1803F801
:1037A0001801E0F800000000000000000001C0E087
:1037B00003C0F004000804080804080806180803F9
:1037C000F41801E7F00001E0000000000000000034
:1037D00000000300000D00001100006100008108DE
:1037E00003010807FFF80FFFF800010800010800B7
:1037F00000000000000000E007FCD00608080610EA
:1038000008061008061008061838060FF00607C04C
:10381000000000000000000000003F8001FFE00306
:10382000843002081804100804100804100807184F
:1038300010030FF00007C0000000000000000000AF
:1038400003C0000700000600000600F80607F8069F
:10385000180006E00007000006000000000000005D
:103860000001E1E003F7F00634100418080418081A
:10387000040C08040C0806161803F3F001C1E0005C
:10388000000000000000F80003FC300306380402CA
:10389000080402080402080404100308F001FFC031
:1038A000007F000000000000000000000000000099
:1038B0000000000000007038007038007038000010
:1038C00000000000000000000000000000000000F8
:1038D00000000000000000000000301A00301C0052
:1038E00000000000000000000000000000000000D8
:1038F0000000000000080000140000220000410049
:103900000080800100400200200400100800080030
:103910000000000000002100002100002100002123
:1039200000002100002100002100002100002100F2
:103930000021000000000000000000000800080452
:1039400000100200200100400080800041000022A1
:103950000000140000080000000000000003C00088
:1039600004C000040000080038080F3808083808B0
:1039700010000C300007E00003C000000000000051
:1039800000003F8000FFE0038070020F1006708887
:1039900004C088048308047F8802C09003012000CB
:1039A000FE400000080000180001F8003E0801C2B7
:1039B0000007020007E20000FE00001FC80001F837
:1039C00000003800000804000807FFF807FFF804AB
:1039D000080804080804080804080806180803F47E
:1039E0001801E7F00001E0000000000000003F8047
:1039F00001FFE003807002001804000804000804BE
:103A000000080400100600200780C0000000040029
:103A10000807FFF807FFF80400080400080400087E
:103A200004001802001003807001FFE0007F800096
:103A3000000004000807FFF807FFF804080804085E
:103A400008040808040808043E08040008060018D2
:103A500001006000000004000807FFF807FFF804F9
:103A60000808040800040800040800043E000600DA
:103A700000060000018000000000000000003F8000
:103A800001FFE00380700600180400080402080427
:103A900002080203F00783F00002000002000400A5
:103AA0000807FFF807FFF8040808000800000800EE
:103AB00000080000080004080807FFF807FFF804E2
:103AC00000080000000000000400080400080400D2
:103AD0000807FFF807FFF8040008040008040008BE
:103AE00000000000000000000000000600000700C9
:103AF000000104000104000104000307FFFE07FFAA
:103B0000FC04000004000004000004000807FFF8A3
:103B100007FFF8040C08001800003E0004C78005E9
:103B200003C80600F8040038040018000008040068
:103B30000807FFF807FFF804000800000800000865
:103B400000000800000800000800001800006000E5
:103B5000000004000807FFF807800807FC00007F4A
:103B6000C00003F80007C000780007800807FFF8CE
:103B700007FFF804000804000807FFF8070008031F
:103B8000C00000E000003800001E00000700000137
:103B9000C00400F007FFF8040000000000007F8070
:103BA00001FFE00380700600180400080400080606
:103BB000001803003001FFE0007F800000000400D7
:103BC0000807FFF807FFF8040408040400040400D1
:103BD000040400040400060C0003F80001F00000D7
:103BE0000000000000007F8001FFE00380700600FD
:103BF000880400880400C806003C03003E01FFE67C
:103C0000007F8400000004000807FFF807FFF804A5
:103C10000808040800040C00040F00040BC0061080
:103C2000F003F03801E00800000800000001E0F8AF
:103C300003F030063010041808041808040C0804B7
:103C40000C080206180207F00781E000000001805E
:103C50000006000004000004000004000807FFF84C
:103C600007FFF8040008040000040000060000013B
:103C7000800004000007FFE007FFF00400180000C8
:103C800008000008000008000008000008040010F8
:103C900007FFE004000004000006000007E0000742
:103CA000FE00041FE00001F80000380001E0043EBF
:103CB0000007C00006000004000004000007E00048
:103CC00007FFC0041FF80007C007F80007FF8004C3
:103CD0003FF80007C004F8000700000400000000DF
:103CE0000004000806001807C07805F1C8003E006F
:103CF000001F800463E80780F8060018040008002D
:103D0000000004000006000007800007E008047CB3
:103D100008001FF80007F800180804E00807000072
:103D2000060000040000000000010008060038043E
:103D300000F80403E8040F08047C0805F00807C035
:103D400008070018040060000000000000000000E8
:103D50000000000000000000003FFFFE20000220E5
:103D600000022000022000022000020000000000EB
:103D70000000000008000007000000C0000038003C
:103D80000006000001C000003000000E000001002D
:103D900000000000000000002000022000022000BF
:103DA000022000022000023FFFFE00000000000091
:103DB00000000000000000000000000000000008FB
:103DC0000000100000300000200000300000100053
:103DD00000080000000000000000000001000001D9
:103DE00000000100000100000100000100000100CE
:103DF00000010000010000010000010000010000BE
:103E00000000000000000020000020000010000062
:103E10001000000000000000000000000000000092
:103E200000000000000000F00019F8001B1800223C
:103E300008002608002408002410003FF8001FF89E
:103E400000000800001800000004000007FFF80F41
:103E5000FFF00018180010080020080020080030AB
:103E600018001FF0000FC00000000000000007C095
:103E7000001FF00018300020080020080020080073
:103E80003C08001C10000060000000000000000062
:103E9000000007C0001FF0003818002008002008AC
:103EA00000200804101007FFF80FFFF000001000BA
:103EB00000000000000000000007C0001FF000121A
:103EC00030002218002208002208003208001E10CC
:103ED000000E20000000000000002000002008006C
:103EE000200801FFF803FFF806200804200804203A
:103EF0000807200003000000000000000000000E82
:103F0000000E6E001FF30031B10020B10020B1009F
:103F10003191001F13002E1E00200E003000000003
:103F20000004000807FFF80FFFF800100800200049
:103F3000002000002008003FF8001FF800000800E3
:103F40000000000000000000002008002008002001
:103F500008063FF8063FF8000008000008000008C7
:103F6000000000000000000000000000000003004E
:103F70000003002001002001002003063FFE063F51
:103F8000FC00000000000000000000000004000829
:103F900007FFF80FFFF8000188000300002FC000A2
:103FA00038F8002038002008000008000000000059
:103FB0000000000004000804000804000807FFF8DF
:103FC0000FFFF800000800000800000800000000D3
:103FD0000000002008003FF8003FF8001008002013
:103FE00000003FF8003FF8001008002000003FF8F4
:103FF000003FF8000008000000002008003FF80023
:104000003FF8001008001000002000002008003FCA
:10401000F8001FF80000080000000000000007C0C2
:10402000000FF000183000300800200800200800C1
:104030003008001830000FF00007C000000000003A
:1040400000002001003FFF003FFF00101100200989
:10405000002008002008003038001FF0000FC000CA
:1040600000000000000007C0001FF000381800200A
:1040700008002008002009001011001FFF003FFF6A
:1040800000000100000000200800200800200800B7
:104090003FF8003FF8000808001008002008002042
:1040A00000003000003000000000000000000000B0
:1040B000000C78001E1800330800230800210800B7
:1040C00021880021980030F00038600000000000D6
:1040D0000000200000200000200000FFF003FFF897
:1040E0000020080020080020080000300000000028
:1040F0000000000000002000003FF0007FF80000FA
:1041000018000008000008002010003FF8007FF0B1
:10411000000010000000000000002000003000003F
:104120003C00003F800023F0000078000070002376
:1041300080003C00003000002000002000003C0017
:10414000003FE00023F80000E0002700003E0000F0
:104150003FE00021F80001E0003E000020000000E8
:1041600000002008002008003838003E6800278042
:104170000003C8002CF80038380020180020080080
:104180000000000000002000003003003C01003F60
:10419000830023EC000070002380003C000020001E
:1041A00000200000000000000000000000380800AF
:1041B00020380020F80023E8002F88003E0800384F
:1041C000080020180000700000000000000000003F
:1041D0000000000000000000000008000014001FA4
:1041E000F7FC300006200002000000000000000084
:1041F00000000000000000000000000000000000BF
:10420000FFFFFF00000000000000000000000000B1
:1042100000000000000000002000023000061FF730
:10422000FC00140000080000000000000000000076
:1042300000000000000000000018000060000040C6
:1042400000004000002000001000000800000400F2
:10425000000400000C000010000000007C42000878
:1042600000000020340000006C010008B04200088B
:10427000340000203409000088010008020000001A
:10428000000000000000000000000000000000002E
:104290000000000000000001020304010203040604
:1042A00007080902040608000000000000010000E1
:0400000508000131BD
:00000001FF
